{
  "contractName": "BabaCoin",
  "abi": [
    {
      "constant": true,
      "inputs": [],
      "name": "totalSupply",
      "outputs": [
        {
          "name": "",
          "type": "uint256"
        }
      ],
      "payable": false,
      "stateMutability": "view",
      "type": "function"
    },
    {
      "inputs": [],
      "payable": false,
      "stateMutability": "nonpayable",
      "type": "constructor"
    }
  ],
  "bytecode": "0x60606040523415600e57600080fd5b620f4240600081905550609c806100266000396000f300606060405260043610603f576000357c0100000000000000000000000000000000000000000000000000000000900463ffffffff16806318160ddd146044575b600080fd5b3415604e57600080fd5b6054606a565b6040518082815260200191505060405180910390f35b600054815600a165627a7a723058206b36bf5c74a67b149221aaf6f58ac2bfa61abe912d3496d38157ac47e1f82da10029",
  "source": "pragma solidity ^0.4.2;\n\ncontract BabaCoin{\n\t// constructor\n\t// Set the total number of tokens\n\t// Read the total number of tokens\n\n\tuint256 public totalSupply;\n\tfunction BabaCoin() public{\n\t\ttotalSupply = 1000000;//state variable- accesible to entire contract-writes to disk\n\t}\n}",
  "sourcePath": "/home/ubuntu/Desktop/Blockchain/babacoin/contracts/BabaCoin.sol",
  "compiler": {
    "name": "solc",
    "version": "0.4.18+commit.9cf6e910.Emscripten.clang"
  },
  "schemaVersion": "1.0.1",
  "updatedAt": "2018-10-31T11:55:31.592Z"
}